{
  "_format": "hh3-artifact-1",
  "contractName": "CourseManager",
  "sourceName": "contracts/CourseManager.sol",
  "abi": [
    {
      "inputs": [
        {
          "internalType": "address",
          "name": "_ydToken",
          "type": "address"
        }
      ],
      "stateMutability": "nonpayable",
      "type": "constructor"
    },
    {
      "inputs": [
        {
          "internalType": "address",
          "name": "owner",
          "type": "address"
        }
      ],
      "name": "OwnableInvalidOwner",
      "type": "error"
    },
    {
      "inputs": [
        {
          "internalType": "address",
          "name": "account",
          "type": "address"
        }
      ],
      "name": "OwnableUnauthorizedAccount",
      "type": "error"
    },
    {
      "anonymous": false,
      "inputs": [
        {
          "indexed": true,
          "internalType": "uint256",
          "name": "courseId",
          "type": "uint256"
        },
        {
          "indexed": true,
          "internalType": "address",
          "name": "instructor",
          "type": "address"
        },
        {
          "indexed": false,
          "internalType": "string",
          "name": "title",
          "type": "string"
        },
        {
          "indexed": false,
          "internalType": "string",
          "name": "description",
          "type": "string"
        },
        {
          "indexed": false,
          "internalType": "uint256",
          "name": "price",
          "type": "uint256"
        },
        {
          "indexed": false,
          "internalType": "uint256",
          "name": "timestamp",
          "type": "uint256"
        }
      ],
      "name": "CourseCreated",
      "type": "event"
    },
    {
      "anonymous": false,
      "inputs": [
        {
          "indexed": true,
          "internalType": "address",
          "name": "buyer",
          "type": "address"
        },
        {
          "indexed": true,
          "internalType": "uint256",
          "name": "courseId",
          "type": "uint256"
        },
        {
          "indexed": true,
          "internalType": "address",
          "name": "instructor",
          "type": "address"
        },
        {
          "indexed": false,
          "internalType": "uint256",
          "name": "price",
          "type": "uint256"
        },
        {
          "indexed": false,
          "internalType": "uint256",
          "name": "timestamp",
          "type": "uint256"
        }
      ],
      "name": "CoursePurchased",
      "type": "event"
    },
    {
      "anonymous": false,
      "inputs": [
        {
          "indexed": true,
          "internalType": "uint256",
          "name": "courseId",
          "type": "uint256"
        },
        {
          "indexed": false,
          "internalType": "bool",
          "name": "active",
          "type": "bool"
        }
      ],
      "name": "CourseStatusChanged",
      "type": "event"
    },
    {
      "anonymous": false,
      "inputs": [
        {
          "indexed": true,
          "internalType": "address",
          "name": "previousOwner",
          "type": "address"
        },
        {
          "indexed": true,
          "internalType": "address",
          "name": "newOwner",
          "type": "address"
        }
      ],
      "name": "OwnershipTransferred",
      "type": "event"
    },
    {
      "anonymous": false,
      "inputs": [
        {
          "indexed": true,
          "internalType": "address",
          "name": "user",
          "type": "address"
        },
        {
          "indexed": false,
          "internalType": "string",
          "name": "nickname",
          "type": "string"
        },
        {
          "indexed": false,
          "internalType": "string",
          "name": "bio",
          "type": "string"
        },
        {
          "indexed": false,
          "internalType": "uint256",
          "name": "timestamp",
          "type": "uint256"
        }
      ],
      "name": "UserUpdated",
      "type": "event"
    },
    {
      "inputs": [],
      "name": "courseCounter",
      "outputs": [
        {
          "internalType": "uint256",
          "name": "",
          "type": "uint256"
        }
      ],
      "stateMutability": "view",
      "type": "function"
    },
    {
      "inputs": [
        {
          "internalType": "uint256",
          "name": "",
          "type": "uint256"
        }
      ],
      "name": "courses",
      "outputs": [
        {
          "internalType": "uint256",
          "name": "id",
          "type": "uint256"
        },
        {
          "internalType": "string",
          "name": "title",
          "type": "string"
        },
        {
          "internalType": "string",
          "name": "description",
          "type": "string"
        },
        {
          "internalType": "uint256",
          "name": "price",
          "type": "uint256"
        },
        {
          "internalType": "address",
          "name": "instructor",
          "type": "address"
        },
        {
          "internalType": "bool",
          "name": "active",
          "type": "bool"
        },
        {
          "internalType": "uint256",
          "name": "createdAt",
          "type": "uint256"
        }
      ],
      "stateMutability": "view",
      "type": "function"
    },
    {
      "inputs": [
        {
          "internalType": "string",
          "name": "title",
          "type": "string"
        },
        {
          "internalType": "string",
          "name": "description",
          "type": "string"
        },
        {
          "internalType": "uint256",
          "name": "price",
          "type": "uint256"
        }
      ],
      "name": "createCourse",
      "outputs": [
        {
          "internalType": "uint256",
          "name": "",
          "type": "uint256"
        }
      ],
      "stateMutability": "nonpayable",
      "type": "function"
    },
    {
      "inputs": [
        {
          "internalType": "uint256",
          "name": "courseId",
          "type": "uint256"
        }
      ],
      "name": "getCourse",
      "outputs": [
        {
          "components": [
            {
              "internalType": "uint256",
              "name": "id",
              "type": "uint256"
            },
            {
              "internalType": "string",
              "name": "title",
              "type": "string"
            },
            {
              "internalType": "string",
              "name": "description",
              "type": "string"
            },
            {
              "internalType": "uint256",
              "name": "price",
              "type": "uint256"
            },
            {
              "internalType": "address",
              "name": "instructor",
              "type": "address"
            },
            {
              "internalType": "bool",
              "name": "active",
              "type": "bool"
            },
            {
              "internalType": "uint256",
              "name": "createdAt",
              "type": "uint256"
            }
          ],
          "internalType": "struct CourseManager.Course",
          "name": "",
          "type": "tuple"
        }
      ],
      "stateMutability": "view",
      "type": "function"
    },
    {
      "inputs": [
        {
          "internalType": "uint256",
          "name": "offset",
          "type": "uint256"
        },
        {
          "internalType": "uint256",
          "name": "limit",
          "type": "uint256"
        }
      ],
      "name": "getCoursesPaginated",
      "outputs": [
        {
          "components": [
            {
              "internalType": "uint256",
              "name": "id",
              "type": "uint256"
            },
            {
              "internalType": "string",
              "name": "title",
              "type": "string"
            },
            {
              "internalType": "string",
              "name": "description",
              "type": "string"
            },
            {
              "internalType": "uint256",
              "name": "price",
              "type": "uint256"
            },
            {
              "internalType": "address",
              "name": "instructor",
              "type": "address"
            },
            {
              "internalType": "bool",
              "name": "active",
              "type": "bool"
            },
            {
              "internalType": "uint256",
              "name": "createdAt",
              "type": "uint256"
            }
          ],
          "internalType": "struct CourseManager.Course[]",
          "name": "",
          "type": "tuple[]"
        }
      ],
      "stateMutability": "view",
      "type": "function"
    },
    {
      "inputs": [],
      "name": "getTotalCourses",
      "outputs": [
        {
          "internalType": "uint256",
          "name": "",
          "type": "uint256"
        }
      ],
      "stateMutability": "view",
      "type": "function"
    },
    {
      "inputs": [
        {
          "internalType": "address",
          "name": "userAddress",
          "type": "address"
        }
      ],
      "name": "getUser",
      "outputs": [
        {
          "components": [
            {
              "internalType": "string",
              "name": "nickname",
              "type": "string"
            },
            {
              "internalType": "string",
              "name": "bio",
              "type": "string"
            },
            {
              "internalType": "uint256",
              "name": "updatedAt",
              "type": "uint256"
            }
          ],
          "internalType": "struct CourseManager.User",
          "name": "",
          "type": "tuple"
        }
      ],
      "stateMutability": "view",
      "type": "function"
    },
    {
      "inputs": [
        {
          "internalType": "address",
          "name": "instructor",
          "type": "address"
        }
      ],
      "name": "getUserCourses",
      "outputs": [
        {
          "internalType": "uint256[]",
          "name": "",
          "type": "uint256[]"
        }
      ],
      "stateMutability": "view",
      "type": "function"
    },
    {
      "inputs": [
        {
          "internalType": "address",
          "name": "user",
          "type": "address"
        },
        {
          "internalType": "uint256",
          "name": "courseId",
          "type": "uint256"
        }
      ],
      "name": "hasPurchased",
      "outputs": [
        {
          "internalType": "bool",
          "name": "",
          "type": "bool"
        }
      ],
      "stateMutability": "view",
      "type": "function"
    },
    {
      "inputs": [],
      "name": "owner",
      "outputs": [
        {
          "internalType": "address",
          "name": "",
          "type": "address"
        }
      ],
      "stateMutability": "view",
      "type": "function"
    },
    {
      "inputs": [
        {
          "internalType": "uint256",
          "name": "courseId",
          "type": "uint256"
        }
      ],
      "name": "purchaseCourse",
      "outputs": [],
      "stateMutability": "nonpayable",
      "type": "function"
    },
    {
      "inputs": [
        {
          "internalType": "address",
          "name": "",
          "type": "address"
        },
        {
          "internalType": "uint256",
          "name": "",
          "type": "uint256"
        }
      ],
      "name": "purchases",
      "outputs": [
        {
          "internalType": "bool",
          "name": "",
          "type": "bool"
        }
      ],
      "stateMutability": "view",
      "type": "function"
    },
    {
      "inputs": [],
      "name": "renounceOwnership",
      "outputs": [],
      "stateMutability": "nonpayable",
      "type": "function"
    },
    {
      "inputs": [
        {
          "internalType": "uint256",
          "name": "courseId",
          "type": "uint256"
        },
        {
          "internalType": "bool",
          "name": "active",
          "type": "bool"
        }
      ],
      "name": "setCourseStatus",
      "outputs": [],
      "stateMutability": "nonpayable",
      "type": "function"
    },
    {
      "inputs": [
        {
          "internalType": "address",
          "name": "newOwner",
          "type": "address"
        }
      ],
      "name": "transferOwnership",
      "outputs": [],
      "stateMutability": "nonpayable",
      "type": "function"
    },
    {
      "inputs": [
        {
          "internalType": "string",
          "name": "nickname",
          "type": "string"
        },
        {
          "internalType": "string",
          "name": "bio",
          "type": "string"
        }
      ],
      "name": "updateUser",
      "outputs": [],
      "stateMutability": "nonpayable",
      "type": "function"
    },
    {
      "inputs": [
        {
          "internalType": "address",
          "name": "",
          "type": "address"
        },
        {
          "internalType": "uint256",
          "name": "",
          "type": "uint256"
        }
      ],
      "name": "userCourses",
      "outputs": [
        {
          "internalType": "uint256",
          "name": "",
          "type": "uint256"
        }
      ],
      "stateMutability": "view",
      "type": "function"
    },
    {
      "inputs": [
        {
          "internalType": "address",
          "name": "",
          "type": "address"
        }
      ],
      "name": "users",
      "outputs": [
        {
          "internalType": "string",
          "name": "nickname",
          "type": "string"
        },
        {
          "internalType": "string",
          "name": "bio",
          "type": "string"
        },
        {
          "internalType": "uint256",
          "name": "updatedAt",
          "type": "uint256"
        }
      ],
      "stateMutability": "view",
      "type": "function"
    },
    {
      "inputs": [],
      "name": "ydToken",
      "outputs": [
        {
          "internalType": "contract IERC20",
          "name": "",
          "type": "address"
        }
      ],
      "stateMutability": "view",
      "type": "function"
    }
  ],
  "bytecode": "0x608060405234801561000f575f5ffd5b50604051611c46380380611c4683398101604081905261002e916100d1565b338061005357604051631e4fbdf760e01b81525f600482015260240160405180910390fd5b61005c81610082565b50600180546001600160a01b0319166001600160a01b03929092169190911790556100fe565b5f80546001600160a01b038381166001600160a01b0319831681178455604051919092169283917f8be0079c531659141344cd1fd0a4f28419497f9722a3daafe3b4186f6b6457e09190a35050565b5f602082840312156100e1575f5ffd5b81516001600160a01b03811681146100f7575f5ffd5b9392505050565b611b3b8061010b5f395ff3fe608060405234801561000f575f5ffd5b506004361061011c575f3560e01c806393a05c20116100a9578063b9c5c0221161006e578063b9c5c022146102e4578063cd131938146102f7578063d4cba21c1461030a578063dd4a242514610312578063f2fde38b14610325575f5ffd5b806393a05c201461026357806396f979d2146102765780639c872d2e1461029c578063a4adb24b146102af578063a87430ba146102c2575f5ffd5b806360f2f417116100ef57806360f2f417146101de5780636f77926b146101fe578063715018a61461021e57806382216fbd146102285780638da5cb5b1461023f575f5ffd5b8063058447fe146101205780630b91e28d14610149578063119231321461016957806352d3f849146101b1575b5f5ffd5b61013361012e36600461148d565b610338565b6040516101409190611551565b60405180910390f35b61015c6101573660046115b4565b610610565b60405161014091906115cb565b6101a16101773660046115ff565b6001600160a01b03919091165f908152600460209081526040808320938352929052205460ff1690565b6040519015158152602001610140565b6101a16101bf3660046115ff565b600460209081525f928352604080842090915290825290205460ff1681565b6101f16101ec366004611627565b61079d565b6040516101409190611640565b61021161020c366004611627565b610806565b6040516101409190611682565b61022661097b565b005b61023160065481565b604051908152602001610140565b5f546001600160a01b03165b6040516001600160a01b039091168152602001610140565b6102316102713660046115ff565b61098e565b6102896102843660046115b4565b6109b9565b60405161014097969594939291906116d1565b6102266102aa366004611738565b610b10565b6102316102bd366004611805565b610bdf565b6102d56102d0366004611627565b610dc1565b60405161014093929190611873565b60015461024b906001600160a01b031681565b6102266103053660046115b4565b610eee565b600654610231565b6102266103203660046118a8565b611306565b610226610333366004611627565b611392565b606060328211156103815760405162461bcd60e51b815260206004820152600e60248201526d098d2dad2e840e8dede40d0d2ced60931b60448201526064015b60405180910390fd5b60065483106103c95760405162461bcd60e51b81526020600482015260146024820152734f6666736574206f7574206f6620626f756e647360601b6044820152606401610378565b5f6103d48385611921565b90506006548111156103e557506006545b5f6103f08583611934565b67ffffffffffffffff81111561040857610408611766565b60405190808252806020026020018201604052801561044157816020015b61042e61144a565b8152602001906001900390816104265790505b509050845b828110156106055760025f61045c836001611921565b81526020019081526020015f206040518060e00160405290815f820154815260200160018201805461048d90611947565b80601f01602080910402602001604051908101604052809291908181526020018280546104b990611947565b80156105045780601f106104db57610100808354040283529160200191610504565b820191905f5260205f20905b8154815290600101906020018083116104e757829003601f168201915b5050505050815260200160028201805461051d90611947565b80601f016020809104026020016040519081016040528092919081815260200182805461054990611947565b80156105945780601f1061056b57610100808354040283529160200191610594565b820191905f5260205f20905b81548152906001019060200180831161057757829003601f168201915b50505091835250506003820154602082015260048201546001600160a01b0381166040830152600160a01b900460ff1615156060820152600590910154608090910152826105e28884611934565b815181106105f2576105f261197f565b6020908102919091010152600101610446565b509150505b92915050565b61061861144a565b60025f8381526020019081526020015f206040518060e00160405290815f820154815260200160018201805461064d90611947565b80601f016020809104026020016040519081016040528092919081815260200182805461067990611947565b80156106c45780601f1061069b576101008083540402835291602001916106c4565b820191905f5260205f20905b8154815290600101906020018083116106a757829003601f168201915b505050505081526020016002820180546106dd90611947565b80601f016020809104026020016040519081016040528092919081815260200182805461070990611947565b80156107545780601f1061072b57610100808354040283529160200191610754565b820191905f5260205f20905b81548152906001019060200180831161073757829003601f168201915b50505091835250506003820154602082015260048201546001600160a01b0381166040830152600160a01b900460ff161515606082015260059091015460809091015292915050565b6001600160a01b0381165f908152600560209081526040918290208054835181840281018401909452808452606093928301828280156107fa57602002820191905f5260205f20905b8154815260200190600101908083116107e6575b50505050509050919050565b610829604051806060016040528060608152602001606081526020015f81525090565b6001600160a01b0382165f908152600360205260409081902081516060810190925280548290829061085a90611947565b80601f016020809104026020016040519081016040528092919081815260200182805461088690611947565b80156108d15780601f106108a8576101008083540402835291602001916108d1565b820191905f5260205f20905b8154815290600101906020018083116108b457829003601f168201915b505050505081526020016001820180546108ea90611947565b80601f016020809104026020016040519081016040528092919081815260200182805461091690611947565b80156109615780601f1061093857610100808354040283529160200191610961565b820191905f5260205f20905b81548152906001019060200180831161094457829003601f168201915b505050505081526020016002820154815250509050919050565b6109836113cf565b61098c5f6113fb565b565b6005602052815f5260405f2081815481106109a7575f80fd5b905f5260205f20015f91509150505481565b60026020525f9081526040902080546001820180549192916109da90611947565b80601f0160208091040260200160405190810160405280929190818152602001828054610a0690611947565b8015610a515780601f10610a2857610100808354040283529160200191610a51565b820191905f5260205f20905b815481529060010190602001808311610a3457829003601f168201915b505050505090806002018054610a6690611947565b80601f0160208091040260200160405190810160405280929190818152602001828054610a9290611947565b8015610add5780601f10610ab457610100808354040283529160200191610add565b820191905f5260205f20905b815481529060010190602001808311610ac057829003601f168201915b5050505060038301546004840154600590940154929390926001600160a01b0382169250600160a01b90910460ff169087565b610b186113cf565b5f828152600260205260409020600401546001600160a01b0316610b765760405162461bcd60e51b815260206004820152601560248201527410dbdd5c9cd948191bd95cc81b9bdd08195e1a5cdd605a1b6044820152606401610378565b5f82815260026020526040908190206004018054831515600160a01b0260ff60a01b199091161790555182907f090f6bc7903a4711e0694aded118c02e3c32ea7763fd9bdfbbbab79fc016891990610bd390841515815260200190565b60405180910390a25050565b5f5f845111610c285760405162461bcd60e51b81526020600482015260156024820152745469746c652063616e6e6f7420626520656d70747960581b6044820152606401610378565b5f8211610c775760405162461bcd60e51b815260206004820152601c60248201527f5072696365206d7573742062652067726561746572207468616e2030000000006044820152606401610378565b60068054905f610c8683611993565b90915550506040805160e081018252600654808252602080830188815283850188905260608401879052336080850152600160a085018190524260c08601525f93845260029092529390912082518155925191929190820190610ce990826119f7565b5060408201516002820190610cfe90826119f7565b5060608201516003820155608082015160048201805460a08501511515600160a01b026001600160a81b03199091166001600160a01b039093169290921791909117905560c090910151600591820155335f818152602092835260408082206006805482546001810184559285529590932001939093555491519091907f6de5c1ccdeec30e24e06a0b2f1c2d49788419d870bd70cdb81de3c2f19ecce6990610dae908890889088904290611ab2565b60405180910390a3506006549392505050565b60036020525f9081526040902080548190610ddb90611947565b80601f0160208091040260200160405190810160405280929190818152602001828054610e0790611947565b8015610e525780601f10610e2957610100808354040283529160200191610e52565b820191905f5260205f20905b815481529060010190602001808311610e3557829003601f168201915b505050505090806001018054610e6790611947565b80601f0160208091040260200160405190810160405280929190818152602001828054610e9390611947565b8015610ede5780601f10610eb557610100808354040283529160200191610ede565b820191905f5260205f20905b815481529060010190602001808311610ec157829003601f168201915b5050505050908060020154905083565b5f60025f8381526020019081526020015f206040518060e00160405290815f8201548152602001600182018054610f2490611947565b80601f0160208091040260200160405190810160405280929190818152602001828054610f5090611947565b8015610f9b5780601f10610f7257610100808354040283529160200191610f9b565b820191905f5260205f20905b815481529060010190602001808311610f7e57829003601f168201915b50505050508152602001600282018054610fb490611947565b80601f0160208091040260200160405190810160405280929190818152602001828054610fe090611947565b801561102b5780601f106110025761010080835404028352916020019161102b565b820191905f5260205f20905b81548152906001019060200180831161100e57829003601f168201915b50505091835250506003820154602082015260048201546001600160a01b0381166040830152600160a01b900460ff161515606082015260059091015460809091015260a08101519091506110b65760405162461bcd60e51b8152602060048201526011602482015270436f75727365206e6f742061637469766560781b6044820152606401610378565b60808101516001600160a01b03166111085760405162461bcd60e51b815260206004820152601560248201527410dbdd5c9cd948191bd95cc81b9bdd08195e1a5cdd605a1b6044820152606401610378565b336001600160a01b031681608001516001600160a01b03160361116d5760405162461bcd60e51b815260206004820152601f60248201527f43616e6e6f7420707572636861736520796f7572206f776e20636f75727365006044820152606401610378565b335f90815260046020908152604080832085845290915290205460ff16156111cb5760405162461bcd60e51b8152602060048201526011602482015270105b1c9958591e481c1d5c98da185cd959607a1b6044820152606401610378565b600154608082015160608301516040516323b872dd60e01b81523360048201526001600160a01b03928316602482015260448101919091529116906323b872dd906064016020604051808303815f875af115801561122b573d5f5f3e3d5ffd5b505050506040513d601f19601f8201168201806040525081019061124f9190611aea565b61128d5760405162461bcd60e51b815260206004820152600f60248201526e151c985b9cd9995c8819985a5b1959608a1b6044820152606401610378565b335f818152600460209081526040808320868452825291829020805460ff1916600117905560808401516060850151835190815242928101929092526001600160a01b031692859290917f25dc37085e55eade1aeb015d8aa6b10b59f47c92922a04958b0a03cc8628654f910160405180910390a45050565b6040805160608101825283815260208082018490524282840152335f9081526003909152919091208151819061133c90826119f7565b506020820151600182019061135190826119f7565b506040918201516002909101555133907f20a3c0ccd71749b736891b28a035d7f5e1d6b4161c56414f468d0f1c0f42c42c90610bd390859085904290611873565b61139a6113cf565b6001600160a01b0381166113c357604051631e4fbdf760e01b81525f6004820152602401610378565b6113cc816113fb565b50565b5f546001600160a01b0316331461098c5760405163118cdaa760e01b8152336004820152602401610378565b5f80546001600160a01b038381166001600160a01b0319831681178455604051919092169283917f8be0079c531659141344cd1fd0a4f28419497f9722a3daafe3b4186f6b6457e09190a35050565b6040518060e001604052805f815260200160608152602001606081526020015f81526020015f6001600160a01b031681526020015f151581526020015f81525090565b5f5f6040838503121561149e575f5ffd5b50508035926020909101359150565b5f81518084528060208401602086015e5f602082860101526020601f19601f83011685010191505092915050565b805182525f602082015160e060208501526114f960e08501826114ad565b90506040830151848203604086015261151282826114ad565b606085810151908701526080808601516001600160a01b03169087015260a08086015115159087015260c0948501519490950193909352509192915050565b5f602082016020835280845180835260408501915060408160051b8601019250602086015f5b828110156115a857603f198786030184526115938583516114db565b94506020938401939190910190600101611577565b50929695505050505050565b5f602082840312156115c4575f5ffd5b5035919050565b602081525f6115dd60208301846114db565b9392505050565b80356001600160a01b03811681146115fa575f5ffd5b919050565b5f5f60408385031215611610575f5ffd5b611619836115e4565b946020939093013593505050565b5f60208284031215611637575f5ffd5b6115dd826115e4565b602080825282518282018190525f918401906040840190835b81811015611677578351835260209384019390920191600101611659565b509095945050505050565b602081525f82516060602084015261169d60808401826114ad565b90506020840151601f198483030160408501526116ba82826114ad565b915050604084015160608401528091505092915050565b87815260e060208201525f6116e960e08301896114ad565b82810360408401526116fb81896114ad565b606084019790975250506001600160a01b0393909316608084015290151560a083015260c0909101529392505050565b80151581146113cc575f5ffd5b5f5f60408385031215611749575f5ffd5b82359150602083013561175b8161172b565b809150509250929050565b634e487b7160e01b5f52604160045260245ffd5b5f82601f830112611789575f5ffd5b813567ffffffffffffffff8111156117a3576117a3611766565b604051601f8201601f19908116603f0116810167ffffffffffffffff811182821017156117d2576117d2611766565b6040528181528382016020018510156117e9575f5ffd5b816020850160208301375f918101602001919091529392505050565b5f5f5f60608486031215611817575f5ffd5b833567ffffffffffffffff81111561182d575f5ffd5b6118398682870161177a565b935050602084013567ffffffffffffffff811115611855575f5ffd5b6118618682870161177a565b93969395505050506040919091013590565b606081525f61188560608301866114ad565b828103602084015261189781866114ad565b915050826040830152949350505050565b5f5f604083850312156118b9575f5ffd5b823567ffffffffffffffff8111156118cf575f5ffd5b6118db8582860161177a565b925050602083013567ffffffffffffffff8111156118f7575f5ffd5b6119038582860161177a565b9150509250929050565b634e487b7160e01b5f52601160045260245ffd5b8082018082111561060a5761060a61190d565b8181038181111561060a5761060a61190d565b600181811c9082168061195b57607f821691505b60208210810361197957634e487b7160e01b5f52602260045260245ffd5b50919050565b634e487b7160e01b5f52603260045260245ffd5b5f600182016119a4576119a461190d565b5060010190565b601f8211156119f257805f5260205f20601f840160051c810160208510156119d05750805b601f840160051c820191505b818110156119ef575f81556001016119dc565b50505b505050565b815167ffffffffffffffff811115611a1157611a11611766565b611a2581611a1f8454611947565b846119ab565b6020601f821160018114611a57575f8315611a405750848201515b5f19600385901b1c1916600184901b1784556119ef565b5f84815260208120601f198516915b82811015611a865787850151825560209485019460019092019101611a66565b5084821015611aa357868401515f19600387901b60f8161c191681555b50505050600190811b01905550565b608081525f611ac460808301876114ad565b8281036020840152611ad681876114ad565b604084019590955250506060015292915050565b5f60208284031215611afa575f5ffd5b81516115dd8161172b56fea2646970667358221220c71ffbd67160f91dbc2820ebd39ae8318446f618fe3f270cb05ad7dbd01bbb1564736f6c634300081c0033",
  "linkReferences": {},
  "deployedLinkReferences": {},
  "immutableReferences": {},
  "inputSourceName": "project/contracts/CourseManager.sol",
  "buildInfoId": "solc-0_8_28-3efc7548c09d18a9969d8f1e77c4fe07dfe05ed0"
}