{
  "_format": "hh3-artifact-1",
  "contractName": "SimpleStaking",
  "sourceName": "contracts/SimpleStaking.sol",
  "abi": [
    {
      "inputs": [
        {
          "internalType": "address",
          "name": "_ydToken",
          "type": "address"
        }
      ],
      "stateMutability": "nonpayable",
      "type": "constructor"
    },
    {
      "anonymous": false,
      "inputs": [
        {
          "indexed": true,
          "internalType": "address",
          "name": "user",
          "type": "address"
        },
        {
          "indexed": false,
          "internalType": "uint256",
          "name": "amount",
          "type": "uint256"
        }
      ],
      "name": "Staked",
      "type": "event"
    },
    {
      "anonymous": false,
      "inputs": [
        {
          "indexed": true,
          "internalType": "address",
          "name": "user",
          "type": "address"
        },
        {
          "indexed": false,
          "internalType": "uint256",
          "name": "amount",
          "type": "uint256"
        },
        {
          "indexed": false,
          "internalType": "uint256",
          "name": "reward",
          "type": "uint256"
        }
      ],
      "name": "Unstaked",
      "type": "event"
    },
    {
      "inputs": [],
      "name": "DAILY_REWARD_RATE",
      "outputs": [
        {
          "internalType": "uint256",
          "name": "",
          "type": "uint256"
        }
      ],
      "stateMutability": "view",
      "type": "function"
    },
    {
      "inputs": [],
      "name": "SECONDS_PER_DAY",
      "outputs": [
        {
          "internalType": "uint256",
          "name": "",
          "type": "uint256"
        }
      ],
      "stateMutability": "view",
      "type": "function"
    },
    {
      "inputs": [
        {
          "internalType": "address",
          "name": "user",
          "type": "address"
        }
      ],
      "name": "calculateReward",
      "outputs": [
        {
          "internalType": "uint256",
          "name": "",
          "type": "uint256"
        }
      ],
      "stateMutability": "view",
      "type": "function"
    },
    {
      "inputs": [
        {
          "internalType": "address",
          "name": "user",
          "type": "address"
        }
      ],
      "name": "getStakeInfo",
      "outputs": [
        {
          "internalType": "uint256",
          "name": "amount",
          "type": "uint256"
        },
        {
          "internalType": "uint256",
          "name": "stakeTime",
          "type": "uint256"
        },
        {
          "internalType": "uint256",
          "name": "pendingReward",
          "type": "uint256"
        }
      ],
      "stateMutability": "view",
      "type": "function"
    },
    {
      "inputs": [],
      "name": "getTotalStaked",
      "outputs": [
        {
          "internalType": "uint256",
          "name": "",
          "type": "uint256"
        }
      ],
      "stateMutability": "view",
      "type": "function"
    },
    {
      "inputs": [
        {
          "internalType": "uint256",
          "name": "amount",
          "type": "uint256"
        }
      ],
      "name": "stake",
      "outputs": [],
      "stateMutability": "nonpayable",
      "type": "function"
    },
    {
      "inputs": [
        {
          "internalType": "address",
          "name": "",
          "type": "address"
        }
      ],
      "name": "stakeTimestamp",
      "outputs": [
        {
          "internalType": "uint256",
          "name": "",
          "type": "uint256"
        }
      ],
      "stateMutability": "view",
      "type": "function"
    },
    {
      "inputs": [
        {
          "internalType": "address",
          "name": "",
          "type": "address"
        }
      ],
      "name": "stakedAmount",
      "outputs": [
        {
          "internalType": "uint256",
          "name": "",
          "type": "uint256"
        }
      ],
      "stateMutability": "view",
      "type": "function"
    },
    {
      "inputs": [],
      "name": "unstake",
      "outputs": [],
      "stateMutability": "nonpayable",
      "type": "function"
    },
    {
      "inputs": [],
      "name": "ydToken",
      "outputs": [
        {
          "internalType": "contract IERC20",
          "name": "",
          "type": "address"
        }
      ],
      "stateMutability": "view",
      "type": "function"
    }
  ],
  "bytecode": "0x6080604052348015600e575f5ffd5b5060405161077a38038061077a833981016040819052602b91604e565b5f80546001600160a01b0319166001600160a01b03929092169190911790556079565b5f60208284031215605d575f5ffd5b81516001600160a01b03811681146072575f5ffd5b9392505050565b6106f4806100865f395ff3fe608060405234801561000f575f5ffd5b506004361061009b575f3560e01c8063b9c5c02211610063578063b9c5c02214610100578063c34531531461012a578063d82e396214610158578063f99318551461016b578063f9a88fc41461018a575f5ffd5b80630917e7761461009f5780632def6620146100ba57806370259077146100c457806374f0314f146100e3578063a694fc3a146100ed575b5f5ffd5b6100a7610192565b6040519081526020015b60405180910390f35b6100c2610201565b005b6100a76100d23660046105d5565b60026020525f908152604090205481565b6100a76201518081565b6100c26100fb3660046105fb565b61038e565b5f54610112906001600160a01b031681565b6040516001600160a01b0390911681526020016100b1565b61013d6101383660046105d5565b6104c3565b604080519384526020840192909252908201526060016100b1565b6100a76101663660046105d5565b610537565b6100a76101793660046105d5565b60016020525f908152604090205481565b6100a7606481565b5f80546040516370a0823160e01b81523060048201526001600160a01b03909116906370a0823190602401602060405180830381865afa1580156101d8573d5f5f3e3d5ffd5b505050506040513d601f19601f820116820180604052508101906101fc9190610612565b905090565b335f90815260016020526040902054806102555760405162461bcd60e51b815260206004820152601060248201526f139bc81cdd185ad95908185b5bdd5b9d60821b60448201526064015b60405180910390fd5b335f908152600260205260408120546201518090610273904261063d565b61027d9190610656565b90505f6127108261028f606486610675565b6102999190610675565b6102a39190610656565b335f81815260016020908152604080832083905560029091528120819055549192506001600160a01b039091169063a9059cbb906102e1848761068c565b6040516001600160e01b031960e085901b1681526001600160a01b03909216600483015260248201526044016020604051808303815f875af1158015610329573d5f5f3e3d5ffd5b505050506040513d601f19601f8201168201806040525081019061034d919061069f565b50604080518481526020810183905233917f7fc4727e062e336010f2c282598ef5f14facb3de68cf8195c2f23e1454b2b74e910160405180910390a2505050565b5f81116103dd5760405162461bcd60e51b815260206004820152601d60248201527f416d6f756e74206d7573742062652067726561746572207468616e2030000000604482015260640161024c565b335f90815260016020526040902054156103f9576103f9610201565b5f546040516323b872dd60e01b8152336004820152306024820152604481018390526001600160a01b03909116906323b872dd906064016020604051808303815f875af115801561044c573d5f5f3e3d5ffd5b505050506040513d601f19601f82011682018060405250810190610470919061069f565b50335f818152600160209081526040808320859055600282529182902042905590518381527f9e71bc8eea02a63969f509818f2dafb9254532904319f9dbda79b67bd34a5f3d910160405180910390a250565b6001600160a01b0381165f90815260016020908152604080832054600290925282205490918215610530575f620151806104fd844261063d565b6105079190610656565b905061271081610518606487610675565b6105229190610675565b61052c9190610656565b9150505b9193909250565b6001600160a01b0381165f90815260016020526040812054810361055c57505f919050565b6001600160a01b0382165f908152600260205260408120546201518090610583904261063d565b61058d9190610656565b6001600160a01b0384165f908152600160205260409020549091506127109082906105ba90606490610675565b6105c49190610675565b6105ce9190610656565b9392505050565b5f602082840312156105e5575f5ffd5b81356001600160a01b03811681146105ce575f5ffd5b5f6020828403121561060b575f5ffd5b5035919050565b5f60208284031215610622575f5ffd5b5051919050565b634e487b7160e01b5f52601160045260245ffd5b8181038181111561065057610650610629565b92915050565b5f8261067057634e487b7160e01b5f52601260045260245ffd5b500490565b808202811582820484141761065057610650610629565b8082018082111561065057610650610629565b5f602082840312156106af575f5ffd5b815180151581146105ce575f5ffdfea2646970667358221220af527d0b0518a5dc7030c281203c151f05c0d0a0d0e8fa84888ab4579876f2e864736f6c634300081c0033",
  "linkReferences": {},
  "deployedLinkReferences": {},
  "immutableReferences": {},
  "inputSourceName": "project/contracts/SimpleStaking.sol",
  "buildInfoId": "solc-0_8_28-23f3a4ffe6dd5f28d211141074786ac05d79fcf2"
}