{
  "_format": "hh3-artifact-1",
  "contractName": "YDToken",
  "sourceName": "contracts/YDToken.sol",
  "abi": [
    {
      "inputs": [],
      "stateMutability": "nonpayable",
      "type": "constructor"
    },
    {
      "inputs": [
        {
          "internalType": "address",
          "name": "spender",
          "type": "address"
        },
        {
          "internalType": "uint256",
          "name": "allowance",
          "type": "uint256"
        },
        {
          "internalType": "uint256",
          "name": "needed",
          "type": "uint256"
        }
      ],
      "name": "ERC20InsufficientAllowance",
      "type": "error"
    },
    {
      "inputs": [
        {
          "internalType": "address",
          "name": "sender",
          "type": "address"
        },
        {
          "internalType": "uint256",
          "name": "balance",
          "type": "uint256"
        },
        {
          "internalType": "uint256",
          "name": "needed",
          "type": "uint256"
        }
      ],
      "name": "ERC20InsufficientBalance",
      "type": "error"
    },
    {
      "inputs": [
        {
          "internalType": "address",
          "name": "approver",
          "type": "address"
        }
      ],
      "name": "ERC20InvalidApprover",
      "type": "error"
    },
    {
      "inputs": [
        {
          "internalType": "address",
          "name": "receiver",
          "type": "address"
        }
      ],
      "name": "ERC20InvalidReceiver",
      "type": "error"
    },
    {
      "inputs": [
        {
          "internalType": "address",
          "name": "sender",
          "type": "address"
        }
      ],
      "name": "ERC20InvalidSender",
      "type": "error"
    },
    {
      "inputs": [
        {
          "internalType": "address",
          "name": "spender",
          "type": "address"
        }
      ],
      "name": "ERC20InvalidSpender",
      "type": "error"
    },
    {
      "inputs": [
        {
          "internalType": "address",
          "name": "owner",
          "type": "address"
        }
      ],
      "name": "OwnableInvalidOwner",
      "type": "error"
    },
    {
      "inputs": [
        {
          "internalType": "address",
          "name": "account",
          "type": "address"
        }
      ],
      "name": "OwnableUnauthorizedAccount",
      "type": "error"
    },
    {
      "anonymous": false,
      "inputs": [
        {
          "indexed": true,
          "internalType": "address",
          "name": "owner",
          "type": "address"
        },
        {
          "indexed": true,
          "internalType": "address",
          "name": "spender",
          "type": "address"
        },
        {
          "indexed": false,
          "internalType": "uint256",
          "name": "value",
          "type": "uint256"
        }
      ],
      "name": "Approval",
      "type": "event"
    },
    {
      "anonymous": false,
      "inputs": [
        {
          "indexed": true,
          "internalType": "address",
          "name": "previousOwner",
          "type": "address"
        },
        {
          "indexed": true,
          "internalType": "address",
          "name": "newOwner",
          "type": "address"
        }
      ],
      "name": "OwnershipTransferred",
      "type": "event"
    },
    {
      "anonymous": false,
      "inputs": [
        {
          "indexed": true,
          "internalType": "address",
          "name": "from",
          "type": "address"
        },
        {
          "indexed": true,
          "internalType": "address",
          "name": "to",
          "type": "address"
        },
        {
          "indexed": false,
          "internalType": "uint256",
          "name": "value",
          "type": "uint256"
        }
      ],
      "name": "Transfer",
      "type": "event"
    },
    {
      "inputs": [
        {
          "internalType": "address",
          "name": "owner",
          "type": "address"
        },
        {
          "internalType": "address",
          "name": "spender",
          "type": "address"
        }
      ],
      "name": "allowance",
      "outputs": [
        {
          "internalType": "uint256",
          "name": "",
          "type": "uint256"
        }
      ],
      "stateMutability": "view",
      "type": "function"
    },
    {
      "inputs": [
        {
          "internalType": "address",
          "name": "spender",
          "type": "address"
        },
        {
          "internalType": "uint256",
          "name": "value",
          "type": "uint256"
        }
      ],
      "name": "approve",
      "outputs": [
        {
          "internalType": "bool",
          "name": "",
          "type": "bool"
        }
      ],
      "stateMutability": "nonpayable",
      "type": "function"
    },
    {
      "inputs": [
        {
          "internalType": "address",
          "name": "account",
          "type": "address"
        }
      ],
      "name": "balanceOf",
      "outputs": [
        {
          "internalType": "uint256",
          "name": "",
          "type": "uint256"
        }
      ],
      "stateMutability": "view",
      "type": "function"
    },
    {
      "inputs": [
        {
          "internalType": "address[]",
          "name": "recipients",
          "type": "address[]"
        },
        {
          "internalType": "uint256",
          "name": "amount",
          "type": "uint256"
        }
      ],
      "name": "batchTransfer",
      "outputs": [],
      "stateMutability": "nonpayable",
      "type": "function"
    },
    {
      "inputs": [],
      "name": "decimals",
      "outputs": [
        {
          "internalType": "uint8",
          "name": "",
          "type": "uint8"
        }
      ],
      "stateMutability": "view",
      "type": "function"
    },
    {
      "inputs": [
        {
          "internalType": "address",
          "name": "to",
          "type": "address"
        },
        {
          "internalType": "uint256",
          "name": "amount",
          "type": "uint256"
        }
      ],
      "name": "mint",
      "outputs": [],
      "stateMutability": "nonpayable",
      "type": "function"
    },
    {
      "inputs": [],
      "name": "name",
      "outputs": [
        {
          "internalType": "string",
          "name": "",
          "type": "string"
        }
      ],
      "stateMutability": "view",
      "type": "function"
    },
    {
      "inputs": [],
      "name": "owner",
      "outputs": [
        {
          "internalType": "address",
          "name": "",
          "type": "address"
        }
      ],
      "stateMutability": "view",
      "type": "function"
    },
    {
      "inputs": [],
      "name": "renounceOwnership",
      "outputs": [],
      "stateMutability": "nonpayable",
      "type": "function"
    },
    {
      "inputs": [],
      "name": "symbol",
      "outputs": [
        {
          "internalType": "string",
          "name": "",
          "type": "string"
        }
      ],
      "stateMutability": "view",
      "type": "function"
    },
    {
      "inputs": [],
      "name": "totalSupply",
      "outputs": [
        {
          "internalType": "uint256",
          "name": "",
          "type": "uint256"
        }
      ],
      "stateMutability": "view",
      "type": "function"
    },
    {
      "inputs": [
        {
          "internalType": "address",
          "name": "to",
          "type": "address"
        },
        {
          "internalType": "uint256",
          "name": "value",
          "type": "uint256"
        }
      ],
      "name": "transfer",
      "outputs": [
        {
          "internalType": "bool",
          "name": "",
          "type": "bool"
        }
      ],
      "stateMutability": "nonpayable",
      "type": "function"
    },
    {
      "inputs": [
        {
          "internalType": "address",
          "name": "from",
          "type": "address"
        },
        {
          "internalType": "address",
          "name": "to",
          "type": "address"
        },
        {
          "internalType": "uint256",
          "name": "value",
          "type": "uint256"
        }
      ],
      "name": "transferFrom",
      "outputs": [
        {
          "internalType": "bool",
          "name": "",
          "type": "bool"
        }
      ],
      "stateMutability": "nonpayable",
      "type": "function"
    },
    {
      "inputs": [
        {
          "internalType": "address",
          "name": "newOwner",
          "type": "address"
        }
      ],
      "name": "transferOwnership",
      "outputs": [],
      "stateMutability": "nonpayable",
      "type": "function"
    }
  ],
  "bytecode": "0x608060405234801561000f575f5ffd5b50336040518060400160405280600b81526020016a2cbab72230902a37b5b2b760a91b81525060405180604001604052806002815260200161165160f21b815250816003908161005f9190610307565b50600461006c8282610307565b5050506001600160a01b03811661009d57604051631e4fbdf760e01b81525f60048201526024015b60405180910390fd5b6100a6816100c0565b506100bb3369d3c21bcecceda1000000610111565b6103e6565b600580546001600160a01b038381166001600160a01b0319831681179093556040519116919082907f8be0079c531659141344cd1fd0a4f28419497f9722a3daafe3b4186f6b6457e0905f90a35050565b6001600160a01b03821661013a5760405163ec442f0560e01b81525f6004820152602401610094565b6101455f8383610149565b5050565b6001600160a01b038316610173578060025f82825461016891906103c1565b909155506101e39050565b6001600160a01b0383165f90815260208190526040902054818110156101c55760405163391434e360e21b81526001600160a01b03851660048201526024810182905260448101839052606401610094565b6001600160a01b0384165f9081526020819052604090209082900390555b6001600160a01b0382166101ff5760028054829003905561021d565b6001600160a01b0382165f9081526020819052604090208054820190555b816001600160a01b0316836001600160a01b03167fddf252ad1be2c89b69c2b068fc378daa952ba7f163c4a11628f55a4df523b3ef8360405161026291815260200190565b60405180910390a3505050565b634e487b7160e01b5f52604160045260245ffd5b600181811c9082168061029757607f821691505b6020821081036102b557634e487b7160e01b5f52602260045260245ffd5b50919050565b601f82111561030257805f5260205f20601f840160051c810160208510156102e05750805b601f840160051c820191505b818110156102ff575f81556001016102ec565b50505b505050565b81516001600160401b038111156103205761032061026f565b6103348161032e8454610283565b846102bb565b6020601f821160018114610366575f831561034f5750848201515b5f19600385901b1c1916600184901b1784556102ff565b5f84815260208120601f198516915b828110156103955787850151825560209485019460019092019101610375565b50848210156103b257868401515f19600387901b60f8161c191681555b50505050600190811b01905550565b808201808211156103e057634e487b7160e01b5f52601160045260245ffd5b92915050565b6109e9806103f35f395ff3fe608060405234801561000f575f5ffd5b50600436106100e5575f3560e01c8063715018a61161008857806395d89b411161006357806395d89b41146101d1578063a9059cbb146101d9578063dd62ed3e146101ec578063f2fde38b14610224575f5ffd5b8063715018a61461019b57806383f12fec146101a35780638da5cb5b146101b6575f5ffd5b806323b872dd116100c357806323b872dd1461013c578063313ce5671461014f57806340c10f191461015e57806370a0823114610173575f5ffd5b806306fdde03146100e9578063095ea7b31461010757806318160ddd1461012a575b5f5ffd5b6100f1610237565b6040516100fe919061075e565b60405180910390f35b61011a6101153660046107ae565b6102c7565b60405190151581526020016100fe565b6002545b6040519081526020016100fe565b61011a61014a3660046107d6565b6102e0565b604051601281526020016100fe565b61017161016c3660046107ae565b610303565b005b61012e610181366004610810565b6001600160a01b03165f9081526020819052604090205490565b610171610319565b6101716101b1366004610844565b61032c565b6005546040516001600160a01b0390911681526020016100fe565b6100f1610370565b61011a6101e73660046107ae565b61037f565b61012e6101fa366004610917565b6001600160a01b039182165f90815260016020908152604080832093909416825291909152205490565b610171610232366004610810565b61038c565b60606003805461024690610948565b80601f016020809104026020016040519081016040528092919081815260200182805461027290610948565b80156102bd5780601f10610294576101008083540402835291602001916102bd565b820191905f5260205f20905b8154815290600101906020018083116102a057829003601f168201915b5050505050905090565b5f336102d48185856103ce565b60019150505b92915050565b5f336102ed8582856103db565b6102f8858585610457565b506001949350505050565b61030b6104b4565b61031582826104e1565b5050565b6103216104b4565b61032a5f610515565b565b6103346104b4565b5f5b825181101561036b576103633384838151811061035557610355610980565b602002602001015184610457565b600101610336565b505050565b60606004805461024690610948565b5f336102d4818585610457565b6103946104b4565b6001600160a01b0381166103c257604051631e4fbdf760e01b81525f60048201526024015b60405180910390fd5b6103cb81610515565b50565b61036b8383836001610566565b6001600160a01b038381165f908152600160209081526040808320938616835292905220545f19811015610451578181101561044357604051637dc7a0d960e11b81526001600160a01b038416600482015260248101829052604481018390526064016103b9565b61045184848484035f610566565b50505050565b6001600160a01b03831661048057604051634b637e8f60e11b81525f60048201526024016103b9565b6001600160a01b0382166104a95760405163ec442f0560e01b81525f60048201526024016103b9565b61036b838383610638565b6005546001600160a01b0316331461032a5760405163118cdaa760e01b81523360048201526024016103b9565b6001600160a01b03821661050a5760405163ec442f0560e01b81525f60048201526024016103b9565b6103155f8383610638565b600580546001600160a01b038381166001600160a01b0319831681179093556040519116919082907f8be0079c531659141344cd1fd0a4f28419497f9722a3daafe3b4186f6b6457e0905f90a35050565b6001600160a01b03841661058f5760405163e602df0560e01b81525f60048201526024016103b9565b6001600160a01b0383166105b857604051634a1406b160e11b81525f60048201526024016103b9565b6001600160a01b038085165f908152600160209081526040808320938716835292905220829055801561045157826001600160a01b0316846001600160a01b03167f8c5be1e5ebec7d5bd14f71427d1e84f3dd0314c0f7b2291e5b200ac8c7c3b9258460405161062a91815260200190565b60405180910390a350505050565b6001600160a01b038316610662578060025f8282546106579190610994565b909155506106d29050565b6001600160a01b0383165f90815260208190526040902054818110156106b45760405163391434e360e21b81526001600160a01b038516600482015260248101829052604481018390526064016103b9565b6001600160a01b0384165f9081526020819052604090209082900390555b6001600160a01b0382166106ee5760028054829003905561070c565b6001600160a01b0382165f9081526020819052604090208054820190555b816001600160a01b0316836001600160a01b03167fddf252ad1be2c89b69c2b068fc378daa952ba7f163c4a11628f55a4df523b3ef8360405161075191815260200190565b60405180910390a3505050565b602081525f82518060208401528060208501604085015e5f604082850101526040601f19601f83011684010191505092915050565b80356001600160a01b03811681146107a9575f5ffd5b919050565b5f5f604083850312156107bf575f5ffd5b6107c883610793565b946020939093013593505050565b5f5f5f606084860312156107e8575f5ffd5b6107f184610793565b92506107ff60208501610793565b929592945050506040919091013590565b5f60208284031215610820575f5ffd5b61082982610793565b9392505050565b634e487b7160e01b5f52604160045260245ffd5b5f5f60408385031215610855575f5ffd5b823567ffffffffffffffff81111561086b575f5ffd5b8301601f8101851361087b575f5ffd5b803567ffffffffffffffff81111561089557610895610830565b8060051b604051601f19603f830116810181811067ffffffffffffffff821117156108c2576108c2610830565b6040529182526020818401810192908101888411156108df575f5ffd5b6020850194505b83851015610905576108f785610793565b8152602094850194016108e6565b50976020969096013596505050505050565b5f5f60408385031215610928575f5ffd5b61093183610793565b915061093f60208401610793565b90509250929050565b600181811c9082168061095c57607f821691505b60208210810361097a57634e487b7160e01b5f52602260045260245ffd5b50919050565b634e487b7160e01b5f52603260045260245ffd5b808201808211156102da57634e487b7160e01b5f52601160045260245ffdfea2646970667358221220e9ca9cd79356df83930254bc923907911e8c21b7220b14d56a24e93b58423e0464736f6c634300081c0033",
  "linkReferences": {},
  "deployedLinkReferences": {},
  "immutableReferences": {},
  "inputSourceName": "project/contracts/YDToken.sol",
  "buildInfoId": "solc-0_8_28-066285e28814ae1d7abba94f63181c7bbfb747e9"
}